:030000000208E80B
:0C08E800787FE4F6D8FD75810C02080052
:1008B700456C656374726F6E6963730070726F6AFB
:0D08C700656374730057454C434F4D450069
:100800001208D47BFF7A0879B712088C7FC01208CF
:10081000F47BFF7A0879C312088C7FC47E09120822
:10082000397F011208F47BFF7A0879CC12088C809A
:01083000FEC9
:1008D4007F381208F47F0C1208F47F011208F47FA9
:0408E400800208F492
:0A08F4008FA0C2B0120831C2B22278
:06088C008B088A09890AAD
:10089200E4F50BF50CAB08AA09A90A850C82850BB5
:1008A2008312085FFF600D1208FE050CE50C70E56F
:0408B200050B80E1D1
:0108B600221F
:0A08FE008FA0D2B0120831C2B2225E
:08083100C2B1D2B27F0A7E00C1
:10083900E4FDFCC3ED9FEE6480F8EC6480985015EC
:10084900E4FBFA0BBB00010AEB64FA4A70F50DBD33
:0508590000010C80DE2F
:01085E002277
:10085F00BB010CE58229F582E5833AF583E022504E
:10086F0006E92582F8E622BBFE06E92582F8E22298
:0D087F00E58229F582E5833AF583E49322B2
:00000001FF
